:100000000C942B000C9453000C9453000C9453004C
:100010000C9453000C9453000C9453000C94530014
:100020000C9453000C9453000C9453000C94530004
:100030000C9453000C9453000C9453000C945300F4
:100040000C9453000C9453000C9453000C945300E4
:100050000C945300120111241FBECFE5D4E0DEBF83
:10006000CDBF10E0A0E6B0E0E2E0F9E002C005900C
:100070000D92A636B107D9F720E0A6E6B0E001C0A0
:100080001D92AA36B207E1F710E0CBE2D0E004C03F
:100090002197FE010E947904CA32D107C9F70E9454
:1000A00087000C947F040C940000019759F46F3F73
:1000B0007F4F41F440E050E064E070E086E690E07D
:1000C0000E941E0108955D9BFECF8CB9089587B3F1
:1000D000806B87BB8DB181658DB988B3806188BB2A
:1000E00008950F931F93CF93DF938C01C0E0D0E06E
:1000F000F801EC0FFD1F8081882321F00E9463002E
:100100002196F6CFDF91CF911F910F910895CF9354
:10011000DF93CDB7DEB760970FB6F894DEBF0FBEA2
:10012000CDBF1FEF1ABB1BBB0E94670087E689B9D2
:1001300086E880BD88E08AB91ABB86E690E00E9416
:10014000D70180E690E00E947100AE014F5F5F4FE3
:1001500066E286E690E00E94FF028111F6CF8EEF04
:100160008BBB2FEF89E698E1215080409040E1F76A
:1001700000C000008FEF8BBBBE016F5F7F4F86E634
:1001800090E00E943A03E12CF12CC12CD12CE5E047
:10019000EE16F10484F501E010E00C0F1D1F0E0DAA
:1001A0001F1DF80180810E946300F801808185395C
:1001B000D9F028F4833181F0853831F018C0883ABD
:1001C00039F08B3A69F013C0FFEFCF1ADF0A0FC086
:1001D0002FEFC21AD20A0BC08FEFC81AD80A07C075
:1001E0009FEFC91AD90A03C0EFEFCE1ADE0AFFEF5C
:1001F000EF1AFF0ACCCF25E0C216D10421F48BB34D
:1002000081608BBB03C08BB38E7F8BBBBE016F5FE6
:100210007F4F86E690E00E94DF0386E690E00E9432
:100220003A0493CF6FEF7FEF81E090E00E9455009A
:1002300008958FB9779BFECF8FB10895FC0160833D
:10024000718377B321E030E0C90102C0880F991FA4
:100250006A95E2F7872B87BB68B3C901008002C0AB
:10026000880F991F0A94E2F7862B88BB4283538339
:1002700057B3C90102C0880F991F4A95E2F7852B31
:1002800087BB88B3028002C0220F331F0A94E2F7B3
:10029000282B28BB0895FF920F931F93CF93DF93D2
:1002A0008C01F42E98B3C1E0D0E09E01F8010080EB
:1002B00002C0220F331F0A94E2F7822F8095892310
:1002C00088BB862F90E0880F991F8E770E941901B6
:1002D0008F2D0E94190188B3F801008002C0CC0F55
:1002E000DD1F0A94E2F7C82BC8BBDF91CF911F91A5
:1002F0000F91FF9008950F931F93CF93DF938C017D
:1003000098B3C1E0D0E09E01F801008002C0220F46
:10031000331F0A94E2F7822F8095892388BB862FAA
:1003200090E0880F991F8E7780680E94190180E005
:100330000E94190198B3F801008002C0CC0FDD1FA4
:100340000A94E2F7C92BC8BBDF91CF911F910F919F
:1003500008954FE061E00E944B0108950F931F93B1
:10036000CF93DF938C01D62FC42F0E947B01482F9F
:100370004C2B6D2FC8010E944B01DF91CF911F9133
:100380000F9108950F931F93CF93DF938C01D62F76
:10039000C42F0E947B01C0954C2F48236D2FC801AC
:1003A0000E944B01DF91CF911F910F910895CF9340
:1003B000DF93EC0128B381E090E0088002C0880F51
:1003C000991F0A94E2F7822B88BBCE010E94A901F3
:1003D0004DE86AE2CE010E944B014EE36BE2CE0192
:1003E0000E944B014EE16DE2CE010E944B0140E0C4
:1003F0006CE2CE010E944B0140E465E1CE010E9417
:100400004B014DE361E1CE010E944B0143E064E109
:10041000CE010E94AE01DF91CF9108955F926F925D
:100420007F928F929F92AF92BF92CF92DF92EF9284
:10043000FF920F931F93CF93DF93EC01762E5A0117
:1004400069018CE0681731F09EE0691761F0612C5A
:10045000512C10C00F2EF0E36F2EF02D0F2EF7E76A
:100460005F2EF02D07C06894662464F80F2EF2E129
:100470005F2EF02D452D406862E0CE010E944B01B9
:1004800040E864E0CE010E94C20140E86AE0CE018B
:100490000E94AE0140E061E0CE010E944B01812C40
:1004A000912C8C149D0464F4F501E80DF91D408134
:1004B00069E0CE010E944B01EFEF8E1A9E0AF1CF48
:1004C000472D61E0CE010E944B01FCE07F1205C088
:1004D00040E86DE0CE010E94AE010F2EF9E1CF2E73
:1004E000D12CF02D8FE097E20197F1F700C00000CA
:1004F00064E0CE010E947B01B82E91E0C91AD108B8
:1005000029F080FD03C0862D8B2161F340E86DE06A
:10051000CE010E94C201CD2809F457C066E0CE0189
:100520000E947B018D7109F055C0B520B0FC03C05D
:10053000C12CD12C03C0CC24C394D12CECE07E126E
:100540004DC06AE0CE010E947B01982E6CE0CE0186
:100550000E947B01282F277079F0892D90E0019768
:10056000880F991F880F991F880F991F820F911D5F
:10057000F701918380830BC0892D90E0880F991F2C
:10058000880F991F880F991FF7019183808391101D
:1005900002C099249394F0E1F91518F46894992411
:1005A00094F8E12CF12C892D90E0E816F906B4F4CA
:1005B0005801AE0CBF1C69E0CE010E947B01F50121
:1005C0008083FFEFEF1AFF0AEECF6894CC24C1F8C6
:1005D000D12C04C06894CC24C1F8D12CC601DF9181
:1005E000CF911F910F91FF90EF90DF90CF90BF9030
:1005F000AF909F908F907F906F905F900895AF9293
:10060000BF92CF92DF92EF92FF920F931F93CF93FF
:10061000DF9300D0CDB7DEB75C01162F6A0147E04B
:100620006DE00E944B01F6011083CE0101967C0122
:10063000860121E030E0A6016CE0C5010E940E02B7
:10064000009731F429813A812031310521F405C028
:1006500082E090E002C082E090E00F900F90DF9186
:10066000CF911F910F91FF90EF90DF90CF90BF90AF
:10067000AF900895AF92BF92CF92DF92EF92FF9228
:100680000F931F93CF93DF9300D0CDB7DEB75C01FC
:100690006B0140E06DE00E944B0183E9F60180832D
:1006A00080E28183CE0101967C01860122E030E068
:1006B000A6016CE0C5010E940E02DC0149815A814D
:1006C000552314F4495F5F4F5595479555954795C8
:1006D000559547951097C9F490E060E070E09A0155
:1006E000215031096217730744F4F601E60FF71F32
:1006F000208192276F5F7F4FF2CFF601E60FF71F41
:100700008081981711F0A2E0B0E0CD010F900F901A
:10071000DF91CF911F910F91FF90EF90DF90CF90DD
:10072000BF90AF900895AF92BF92CF92DF92EF92B9
:10073000FF920F931F93CF93DF938C015B016A01AC
:10074000790144E065E00E94C20140E86AE0C80126
:100750000E94AE01C0E0D0E0CC15DD0554F4F501F7
:10076000EC0FFD1F408169E0C8010E944B012196FA
:10077000F3CF43E061E0C8010E944B01CFEFD0E02E
:1007800065E0C8010E947B01219711F082FFF8CF3C
:1007900062E2C8010E947B01F701808361E2C80127
:1007A0000E947B01F7018183DF91CF911F910F910F
:1007B000FF90EF90DF90CF90BF90AF900895CF92D1
:1007C000DF92EF92FF920F931F93CF93DF93CDB7FA
:1007D000DEB72B970FB6F894DEBF0FBECDBF6C010E
:1007E00083E98B8380E78C8380E090E085309105FE
:1007F0007CF4FC013296DB01A80FB91F2C9143E079
:1008000050E04C0F5D1FE40FF51F20830196EECFE3
:100810009E01265F3F4F47E050E0BE016D5F7F4F76
:10082000C6010E949303CE0101967C018E010D5FEB
:100830001F4F29E030E0A8016CE0C6010E940E02C3
:10084000892B31F489819A81489721F48B8103C0E7
:1008500080E001C080E02B960FB6F894DEBF0FBE9B
:10086000CDBFDF91CF911F910F91FF90EF90DF905F
:10087000CF900895CF92DF92EF92FF920F931F9344
:10088000CF93DF9300D000D000D0CDB7DEB76C019E
:1008900080E58B831C829E012B5F3F4F42E050E03E
:1008A000BE016D5F7F4FC6010E949303CE0101968A
:1008B0007C018E010D5F1F4F24E030E0A8016CE049
:1008C000C6010E940E028C0148E068E0C6010E9449
:1008D000C201C80126960FB6F894DEBF0FBECDBF89
:1008E000DF91CF911F910F91FF90EF90DF90CF900C
:1008F0000895EE0FFF1F0590F491E02D0994F894F0
:02090000FFCF27
:0609020053544152540061
:00000001FF
